:040000009D00002F30
:040001003DD00000EE
:040002009100000465
:040003002B01DEAD42
:040004002300000CC9
:040005006F10000078
:040006007000000086
:040007002DDFFFFDED
:0400080049D00001DA
:040009004AD00000D9
:04000A004ED00002D2
:04000B000ED0000013
:04000C0009300000B7
:04000D0021000001CD
:04000E008110000954
:04000F00500000019C
:040010005000000993
:0400110080900001DA
:040012005000000199
:040013005000000297
:0400140002000000E6
:040015005000000196
:0400160002000001E3
:0400170011200001B3
:0400180012100001C1
:040019005000001083
:04001A00239FFFFF22
:04001B002DDFFFFFD7
:04001C004FD00000C1
:04001D00910FFFE957
:04001E006F1000005F
:04001F003FD00000CE
:040020002DD00001DE
:040021000A200000B1
:04002200239FFFFE1B
:040023002DDFFFFFCF
:040024004FD00000B9
:04002500910FFFE157
:040026006F10000057
:040027003FD00000C6
:040028002DD00001D6
:040029000220000AA7
:04002A003EE00002B2
:04002B003AD00000C7
:04002C0039D00001C6
:04002D002DD00003CF
:04002E0042B00000DC
:04002F0060F000007D
:040030000000FFFFCE
:00000001FF
